:100000000C9434000C9451000C9451000C94510049
:100010000C9451000C9451000C9451000C9451001C
:100020000C9451000C9451000C9451000C9451000C
:100030000C9451000C9451000C9451000C945100FC
:100040000C9451000C9451000C9451000C945100EC
:100050000C9451000C9451000C9451000C945100DC
:100060000C9451000C94510011241FBECFEFD8E026
:10007000DEBFCDBF12E0A0E0B1E0EEECFBE002C0DD
:1000800005900D92A831B107D9F722E0A8E1B2E0BE
:1000900001C01D92A035B207E1F70E9435030C9410
:1000A000E5050C94000060FF11C05C9A61FF10C070
:1000B0005D9A62FF0FC05E9A63FF0EC05F9A5B9A03
:1000C00085E08A95F1F700005B9808955C98EECF83
:1000D0005D98EFCF5E98F0CF5F98F1CFCF93DF932D
:1000E00000D00F92CDB7DEB789839A836B83629578
:1000F0006F700E9453006B8189819A810E94530026
:1001000087EC90E00197F1F700C000000F900F908E
:100110000F90DF91CF9108954295440F440F407C9A
:100120006058640F0C946E0061E00E946E008FE3D3
:100130009FE10197F1F700C00000089562E00E947E
:100140006E008FE39FE10197F1F700C00000089572
:10015000CF93DF9300D00F92CDB7DEB789839A8318
:100160006B8362956F700E9453008FE19EE401974C
:10017000F1F700C000006B8189819A810E945300D1
:100180008FE19EE40197F1F700C000000F900F90FF
:100190000F90DF91CF9108955A9A0E94A8005A9823
:1001A00008950F931F93CF93DF9300D000D0CDB766
:1001B000DEB789839A836B837C8300E010E0EB8158
:1001C000FC818081811109C00F900F900F900F90DA
:1001D000DF91CF911F910F9108958B819C810196A2
:1001E0008B839C830031110529F460EC89819A810D
:1001F0000E946E00EB81FC81629189819A810E944C
:10020000CC000F5F1F4FDBCF0F931F93CF93DF9374
:1002100000D000D0CDB7DEB789839A838A01660FFC
:10022000660F660F687360640E946E000B831C8308
:100230000B811C81085F1F4FEB81FC816191EB8377
:10024000FC8389819A810E94CC008B819C818017DC
:10025000910791F70F900F900F900F90DF91CF9132
:100260001F910F9108950F931F93CF93DF93CDB7F5
:10027000DEB7A0970FB6F894DEBF0FBECDBF8C01DE
:10028000529A539A549A559A569A579A5C982FEFC5
:1002900080E792E0215080409040E1F700C00000EC
:1002A00063E0C8010E9453008FE19EE40197F1F7DB
:1002B00000C0000063E0C8010E9453008FE891E095
:1002C0000197F1F700C0000063E0C8010E945300ED
:1002D00062E0C8010E94530068E2C8010E946E00FB
:1002E0006CE0C8010E946E00C8010E94940066E0A4
:1002F000C8010E946E0095E89A95F1F7000088E029
:10030000E4E0F1E0DE01599601900D928A95E1F763
:10031000AE01475E5F4F60E0C8010E94040188E0C3
:10032000EEE0F2E0DE01519601900D928A95E1F740
:10033000AE014F5E5F4F61E0C8010E94040188E09A
:10034000ECE0F1E0DE01199601900D928A95E1F75B
:10035000AE01475F5F4F62E0C8010E94040188E080
:10036000E4E1F1E0DE01119601900D928A95E1F74A
:10037000AE014F5F5F4F63E0C8010E940401A09689
:100380000FB6F894DEBF0FBECDBFDF91CF911F91A6
:100390000F910895FC0110821182128213820C9435
:1003A0003301CF92DF92EF92FF920F931F93CF937F
:1003B000DF9300D000D00F92CDB7DEB76C017E0185
:1003C0002FEFE21AF20AC7010E943301C7010E940F
:1003D000940002E010E0B601C7010E94D1008FEF47
:1003E0009EE924E2815090402040E1F700C00000E7
:1003F000C7010E9494008FEF93EC29E08150904058
:100400002040E1F700C00000B601C7010E94D10002
:100410008FEF9EE924E2815090402040E1F700C038
:100420000000C7010E9494008FEF93EC29E08150F7
:1004300090402040E1F700C00000B601C7010E94D3
:10044000D1008FEF97EA21E6815090402040E1F7FC
:1004500000C00000C7010E9494008FEF93EC29E0D8
:10046000815090402040E1F700C0000001301105AC
:1004700081F4C7010F900F900F900F900F90DF91B4
:10048000CF911F910F91FF90EF90DF90CF900C9440
:10049000940001E010E09FCFAF92BF92CF92DF9225
:1004A000EF92FF920F931F93CF93DF9300D000D072
:1004B00000D0CDB7DEB76C015E012FEFA21AB20AF1
:1004C000C5010E943301F60101900020E9F7319740
:1004D0008F010C191D0982E0E82EF12CAE82BD823D
:1004E0008E819D810E949400B6018E819D810E9423
:1004F000D1008FEF9DE222E2815090402040E1F751
:1005000000C00000A12CB12CA016B106C4F0EA94E2
:10051000EF2889F40F900F900F900F900F900F908D
:10052000DF91CF911F910F91FF90EF90DF90CF90CF
:10053000BF90AF900895EE24E394F12CD1CF8E813B
:100540009D810E94940060E88E819D810E946E00D2
:10055000B6016A0D7B1D8E819D810E94D1008FEFB7
:1005600095EA2EE0815090402040E1F700C0000065
:100570008FEFA81AB80AC8CFCF93DF9300D000D06E
:1005800000D0CDB7DEB78D839E83CE0101960E9449
:100590003301CE0101960E9494006D817E81CE01CF
:1005A00001960E94D1002FEF87EA91E6215080400A
:1005B0009040E1F700C000000F900F900F900F9057
:1005C0000F900F90DF91CF910895CF93C82F8A306D
:1005D00029F460E070E08DE00E94E5028091C000A7
:1005E00085FFFCCFC093C60080E090E0CF910895D6
:1005F0008091C00087FFFCCF8091C60090E00895F5
:100600001092C50083E38093C400E0ECF0E08081A9
:100610008D7F808386E08093C20088E18093C10053
:1006200008950F931F93CF93DF9306E212E082E0C9
:10063000F801838385EE92E080879187C8E1D2E05C
:1006400081E08B8388EF92E08A879B870E9400037A
:100650000093360210933702C0933402D0933502D0
:10066000DF91CF911F910F910895CDB7DEB72A97F3
:100670000FB6F894DEBF0FBECDBF0E9411038E01EE
:100680000B5F1F4FC8010E94CA01C8010E943301BD
:10069000C8010E9494000E94270409871A8702E07B
:1006A00010E089859A850E9494000E94270463E0E7
:1006B00070E00E94B1038130910568F58CE191E012
:1006C0000E944C020E94270480FD32C08FE591E019
:1006D0000E944C020E94270480FD34C085E991E00D
:1006E0000E944C028AEB91E00E94BC0280E090E004
:1006F0000E94800469837A838B839C83CE01019658
:100700000E943504FC01818180FD26C08DEC91E0C2
:100710000E944C02C6CF29F48FE291E00E94BC02F5
:10072000D1CF029779F68CE491E00E94D101CACF33
:10073000B8010E94B103019769F68AE791E00E942F
:10074000BC02C8CFB8010E94B103019759F68BEAE9
:1007500091E00E94D101C6CF88EE91E00E94BC02D8
:10076000A0CF97FB072E16F4009407D077FD09D091
:100770000E94C50307FC05D03EF4909581959F4FDC
:100780000895709561957F4F0895AA1BBB1B51E199
:1007900007C0AA1FBB1FA617B70710F0A61BB70BF1
:1007A000881F991F5A95A9F780959095BC01CD0196
:1007B0000895AAE0B0E0EFEDF3E00C94AF0589876F
:1007C0009A87FC01608171818281938100977040DA
:1007D000604021F464E279ED8BE597E02DE133EFA1
:1007E00041E050E00E946D0529833A834B835C838E
:1007F0009B01AC01A7EAB1E40E948C056D837E8366
:100800008F839887ACEEB4EF29813A814B815C816C
:100810000E949A052D813E814F815885260F371FF2
:10082000481F591FC901DA01B7FF03C00197A10989
:10083000B048E985FA8580839183A283B3839F774B
:100840002A96E2E00C94CB050E94D903089580E03B
:1008500091E00E94D90308958093000190930101D3
:10086000109202011092030108956AE372E00E945F
:100870003C048AE392E00895A8E0B0E0E2E4F4E00A
:100880000C94AD058D839E836F837887E0914A0237
:10089000F0914B020FEF1FEF309721F066E472E00A
:1008A00009958C01ED81FE8180819181A281B381C6
:1008B000409146025091470260914802709149026E
:1008C000840F951FA61FB71F101611063CF4012EAA
:1008D000000C0008800F911FA01DB01D89839A8312
:1008E000AB83BC836F817885CE0101960E9493040F
:1008F000EF81F885028713872896E4E00C94C905F8
:10090000FC012FB7F89460914C0270914D028091D8
:100910004E0290914F022FBF309721F06083718378
:10092000828393830895A8E0B0E0E9E9F4E00C94B1
:10093000A9058B01FC01608171818281938120E88E
:1009400031E541E050E00E944B0569017A012CE35A
:1009500030E040E050E00E946D0529833A834B83EC
:100960005C83F80160836CE370E089819A810E9466
:10097000B103F80181836283C601069667E070E0E7
:100980000E94C50384832DEA3EE840E050E0B601B2
:10099000C7010E946D0529833A836D837E838F830F
:1009A000988789819A8124E6289F6001299FD00C2D
:1009B00011246D817E818F81988525EB35E040E0A3
:1009C00050E00E946D0529833A836D837E83E98020
:1009D000FA80EE0CFF1CEE0CFF1CEC0CFD1C8D8154
:1009E0009E81F5E6EF16F10488F1019621E030E0F2
:1009F000A90144595E4F4817590750F46DE671E05C
:100A0000821B930B0E94B103E60EF71E20E030E03C
:100A100044E6E40EF11CF801E682F78280879187B4
:100A2000255C3F4F82179307D0F46FE170E00E947E
:100A3000B103A82F862F2A2FF801858312861386EB
:100A40002F5F23832896E8E00C94C50541E024E657
:100A5000E216F10409F440E0242F30E0C9CF69E93F
:100A600070E0821B930B0E94B103262F220F220FEE
:100A7000E22EE60E6DE370E00E94B103F62EFF0C4D
:100A80006FE170E00E94B103A82F862F2A2F8E5F9E
:100A90008E0D8F0DD1CFA1E21A2EAA1BBB1BFD011B
:100AA0000DC0AA1FBB1FEE1FFF1FA217B307E4074D
:100AB000F50720F0A21BB30BE40BF50B661F771FA5
:100AC000881F991F1A9469F7609570958095909585
:100AD0009B01AC01BD01CF010895052E97FB1EF4CB
:100AE00000940E94840557FD07D00E944B0507FC27
:100AF00003D04EF40C948405509540953095219583
:100B00003F4F4F4F5F4F0895909580957095619539
:100B10007F4F8F4F9F4F08950E94D605A59F900D40
:100B2000B49F900DA49F800D911D11240895B7FFCF
:100B30000C948C050E948C05821B930B08952F92B8
:100B40003F924F925F926F927F928F929F92AF925D
:100B5000BF92CF92DF92EF92FF920F931F93CF93AA
:100B6000DF93CDB7DEB7CA1BDB0B0FB6F894DEBF41
:100B70000FBECDBF09942A88398848885F846E8467
:100B80007D848C849B84AA84B984C884DF80EE80B1
:100B9000FD800C811B81AA81B981CE0FD11D0FB6BA
:100BA000F894DEBF0FBECDBFED010895A29FB00146
:100BB000B39FC001A39F700D811D1124911DB29F91
:0E0BC000700D811D1124911D0895F894FFCF32
:100BCE000100000004000E010F110F00000C0A09B5
:100BDE000A0C000000060A120A060000427579206F
:100BEE00636172732061742048617272797300417F
:100BFE0020676F6F6420707572636861736520285B
:100C0E00666F72204861727279212900486F6E6595
:100C1E00737420486172727973204361727300425B
:100C2E00757920706965732066726F6D20477261E9
:100C3E006E646D61204475636B0048757272792025
:100C4E007570207768696C652070696573207265B0
:100C5E006D61696E006D79737465726965733F209D
:100C6E0063616C6C20676F6F667900476F6F667992
:100C7E002066696E647320697400496F5420416464
:100C8E00766572746973656D656E74730050657404
:100C9E00652077696C6C206275696C6420697420BC
:100CAE00666F7220796F7500556E617574686F721C
:100CBE006973656420636F6E737464756374696FB2
:100CCE006E3F2043616C6C205065746521001F11CE
:080CDE000A04040A111F0000C2
:00000001FF
