:100000000C9434000C9451000C9451000C94510049
:100010000C9451000C9451000C9451000C9451001C
:100020000C9451000C9451000C9451000C9451000C
:100030000C9451000C9451000C9451000C945100FC
:100040000C9451000C9451000C9451000C945100EC
:100050000C9451000C9451000C9451000C945100DC
:100060000C9451000C94510011241FBECFEFD8E026
:10007000DEBFCDBF11E0A0E0B1E0E0EDFAE002C0EC
:1000800005900D92A433B107D9F721E0A4E3B1E0C4
:1000900001C01D92A635B207E1F70E9421020C941F
:1000A00066050C94000060FF11C05C9A61FF10C0EF
:1000B0005D9A62FF0FC05E9A63FF0EC05F9A5B9A03
:1000C00085E08A95F1F700005B9808955C98EECF83
:1000D0005D98EFCF5E98F0CF5F98F1CFCF93DF932D
:1000E00000D00F92CDB7DEB789839A836B83629578
:1000F0006F700E9453006B8189819A810E94530026
:1001000087EC90E00197F1F700C000000F900F908E
:100110000F90DF91CF9108954295440F440F407C9A
:100120006058640F0C946E0061E00E946E008FE3D3
:100130009FE10197F1F700C00000089562E00E947E
:100140006E008FE39FE10197F1F700C00000089572
:10015000CF93DF9300D00F92CDB7DEB789839A8318
:100160006B8362956F700E9453008FE19EE401974C
:10017000F1F700C000006B8189819A810E945300D1
:100180008FE19EE40197F1F700C000000F900F90FF
:100190000F90DF91CF9108955A9A0E94A8005A9823
:1001A00008950F931F93CF93DF9300D000D0CDB766
:1001B000DEB789839A836B837C8300E010E0EB8158
:1001C000FC818081811109C00F900F900F900F90DA
:1001D000DF91CF911F910F9108958B819C810196A2
:1001E0008B839C830031110529F460EC89819A810D
:1001F0000E946E00EB81FC81629189819A810E944C
:10020000CC000F5F1F4FDBCF0F931F93CF93DF9374
:1002100000D000D0CDB7DEB789839A838A01660FFC
:10022000660F660F687360640E946E000B831C8308
:100230000B811C81085F1F4FEB81FC816191EB8377
:10024000FC8389819A810E94CC008B819C818017DC
:10025000910791F70F900F900F900F90DF91CF9132
:100260001F910F9108950F931F93CF93DF93CDB7F5
:10027000DEB7A0970FB6F894DEBF0FBECDBF8C01DE
:10028000529A539A549A559A569A579A5C982FEFC5
:1002900080E792E0215080409040E1F700C00000EC
:1002A00063E0C8010E9453008FE19EE40197F1F7DB
:1002B00000C0000063E0C8010E9453008FE891E095
:1002C0000197F1F700C0000063E0C8010E945300ED
:1002D00062E0C8010E94530068E2C8010E946E00FB
:1002E0006CE0C8010E946E00C8010E94940066E0A4
:1002F000C8010E946E0095E89A95F1F7000088E029
:10030000E0E0F1E0DE01599601900D928A95E1F767
:10031000AE01475E5F4F60E0C8010E94040188E0C3
:10032000EAE2F1E0DE01519601900D928A95E1F743
:10033000AE014F5E5F4F61E0C8010E94040188E09A
:10034000E8E0F1E0DE01199601900D928A95E1F75F
:10035000AE01475F5F4F62E0C8010E94040188E080
:10036000E0E1F1E0DE01119601900D928A95E1F74E
:10037000AE014F5F5F4F63E0C8010E940401A09689
:100380000FB6F894DEBF0FBECDBFDF91CF911F91A6
:100390000F910895FC0110821182128213820C9435
:1003A0003301CF93C82F8A3029F460E070E08DE0EC
:1003B0000E94D1018091C00085FFFCCFC093C60090
:1003C00080E090E0CF9108958091C00087FFFCCF3E
:1003D0008091C60090E008951092C50083E3809359
:1003E000C400E0ECF0E080818D7F808386E0809324
:1003F000C20088E18093C10008950F931F93CF93AB
:10040000DF9302E411E082E0F801838381ED91E063
:1004100080879187C4E3D1E081E08B8384EE91E013
:100420008A879B870E94EC0100935201109353012D
:10043000C0935001D0935101DF91CF911F910F9143
:10044000089500D000D0CDB7DEB70E94FD01CE01E7
:1004500001960E94CA01CE0101960E943301CE018D
:1004600001960E94940068E171E0CE0101960E941D
:10047000D10088E191E00E9461021F928CE08F938D
:1004800080E291E09F938F930E944B020F900F9018
:100490000F900F90FFCFA0E0B0E0E1E5F2E00C9408
:1004A0003F05AE014B5F5F4FFA0161917191AF0162
:1004B00080915201909153010E948D02E2E00C94D0
:1004C0005B050F931F93CF93DF93E0915201F0915F
:1004D00053012381EC0100E010E021FD0EC00FEF7D
:1004E0001FEFC801DF91CF911F910F9108952196C1
:1004F0000995892B11F00FEF1FEF88816091520150
:1005000070915301DB011896ED91FD918111EFCFB0
:100510008AE00995892B29F3E2CFACE0B0E0E3E96A
:10052000F2E00C9432055C016B017A01FC01168249
:100530001782838181FFD3C12AE0522EF5012381E6
:10054000F60123FD859123FF81916F01811509F447
:100550002CC1853239F423FD959123FF91916F01D0
:10056000953229F4B50190E00E948804E7CF30E08D
:10057000712C00E010E0103210F59B32C9F050F4FD
:100580009032B9F09332C9F09E3261F516FD0DC17B
:10059000106405C09D3279F0903399F41160F60132
:1005A00023FD959123FF91916F019111E4CF23C019
:1005B00012601460F4CF1860F2CF1061F0CF17FD15
:1005C0001AC080ED890F8A30F8F616FF05C0759CB9
:1005D000800D1124782EE3CF059D800D1124082F66
:1005E0001062DDCF9C3611F41068D9CF9C3409F429
:1005F00040C09836A1F2892F8F7D85548330D8F181
:10060000933609F45FC0933709F46AC0933509F44F
:1006100076C0943619F0993609F0A2C0F70117FF99
:1006200098C061917191819191917F011F7697FF9F
:1006300003C00E94270510682AE030E04E014FEF0A
:10064000841A940AA4010E94C904682E681816FF2F
:10065000D2C0812F8E7F671408F0CCC014FF1DC15B
:1006600012FD11C11E7E972C812F867809F4CEC011
:100670000FC131E094CF311509F1F8E0EF0EF11C14
:100680008FE3898391E0692E712C4E018FEF881AD8
:10069000980A1F7713FD04C06016710408F43FC068
:1006A0006114710409F042C0011509F447CFB50186
:1006B00080E290E00E9488040150F6CF44E0E40E0E
:1006C000F11CDECFF70180818983F2E0EF0EF11C8F
:1006D00081E0682E712C4E014FEF841A940AD9CF15
:1006E000F701819091907F01672D70E016FD02C0A7
:1006F0006FEF7FEFC4010E947D043C01CACFF70178
:10070000819091907F01672D70E016FD02C06FEF20
:100710007FEFC4010E9472043C011068BBCFB50199
:1007200080E290E00E9488040150B6CFF40117FDEA
:10073000859117FF81914F01B50190E00E948804D7
:1007400081E0011101C080E0081BF1E06F1A71081F
:10075000A7CF61917191872F880F880B982F65CF54
:100760009537C9F41F7E1C872AE030E0FC85F7FF2F
:100770003BC0F70161917191819191917F014E018F
:100780004FEF841A940AA4010E94C904682E6818C5
:100790001C851F775CCF812F897F8C87903799F0DC
:1007A00058F49835B9F09F36E1F0F50186819781CC
:1007B0002C96EFE00C944E059837B9F714FD06C05F
:1007C00020E130E0D3CF9C8590619C87EC85E4608C
:1007D000EC87F6CF14FF02C016601C8720E132E0E0
:1007E000C5CF28E030E0C2CFF7016191719180E080
:1007F00090E0C4CF182F962C14FF36CFFE01E60DE3
:10080000F11D8081803309F041C0197E13FD0EC0B7
:1008100010FF4FC0762C901618F4700E7918902E99
:10082000802F8919091508F480E0980E901608F0B9
:1008300042C0091914FF41C0B50180E390E00E9455
:10084000880412FF09C088E590E011FD02C088E726
:1008500090E0B5010E9488046714D0F14E018FEF3B
:10086000881A980A6A94FE013296E60DF11D3F013E
:10087000F30182913F01B50190E00E948804681461
:100880007904B1F711CF972C182FB8CF12FD02C001
:100890009394BCCF93949394B9CF972C182FE4CE14
:1008A000B50180E290E00E94880483948016C0F332
:1008B000B7CF892CFBCF00E0BDCF812F867861F2C6
:1008C00080E211FD8BE217FD8DE2B50190E0C2CF11
:1008D000B50180E390E00E9488047A94BDCF8FEF49
:1008E0009FEF66CFFC010590615070400110D8F772
:1008F000809590958E0F9F1F0895FC016150704068
:1009000001900110D8F7809590958E0F9F1F089544
:10091000A3E0B0E0EEE8F4E00C943E05182F9983D4
:100920006A837B83DB0113968C9181FD09C01FEFE5
:10093000BFEFB983812F99812396E3E00C945A0588
:1009400082FF1BC0EA81FB812681378184819581EA
:100950002817390754F40190F081E02DCF0101965A
:10096000AA81BB818D939D931083EA81FB8186814F
:100970009781019686839783DDCFAA81BB811896E4
:10098000ED91FD911A97BD01812F0995892B69F38E
:10099000CECFFA01AA27283051F1203181F1E89415
:1009A0006F936E7F6E5F7F4F8F4F9F4FAF4FB1E062
:1009B0003ED0B4E03CD0670F781F891F9A1FA11D5D
:1009C000680F791F8A1F911DA11D6A0F711D811D5E
:1009D000911DA11D20D009F468943F912AE0269F23
:1009E00011243019305D3193DEF6CF010895462F82
:1009F0004770405D4193B3E00FD0C9F7F6CF462F63
:100A00004F70405D4A3318F0495D31FD40524193CB
:100A100002D0A9F7EACFB4E0A69597958795779588
:100A20006795BA95C9F700976105710508959B010F
:100A3000AC010A2E06945795479537952795BA9598
:100A4000C9F7620F731F841F951FA01D089590950D
:100A50008095709561957F4F8F4F9F4F08952F928E
:100A60003F924F925F926F927F928F929F92AF923E
:100A7000BF92CF92DF92EF92FF920F931F93CF938B
:100A8000DF93CDB7DEB7CA1BDB0B0FB6F894DEBF22
:100A90000FBECDBF09942A88398848885F846E8448
:100AA0007D848C849B84AA84B984C884DF80EE8092
:100AB000FD800C811B81AA81B981CE0FD11D0FB69B
:100AC000F894DEBF0FBECDBFED010895F894FFCFBF
:100AD00004000E010F110F00000C0A090A0C00009F
:100AE00000060A120A06000048656A2068656A0066
:100AF00048656A20322025640A001F110A04040A8E
:040B0000111F0000C1
:00000001FF
