:100000000C9434000C9451000C9451000C94510049
:100010000C9451000C9451000C9451000C9451001C
:100020000C9451000C9451000C9451000C9451000C
:100030000C9451000C9451000C9451000C945100FC
:100040000C9451000C9451000C9451000C945100EC
:100050000C9451000C9451000C9451000C945100DC
:100060000C9451000C94510011241FBECFEFD8E026
:10007000DEBFCDBF12E0A0E0B1E0E4E2FCE002C0F0
:1000800005900D92AC30B107D9F722E0ACE0B2E0B8
:1000900001C01D92A434B207E1F70E9437030C940B
:1000A00010060C94000060FF11C05C9A61FF10C044
:1000B0005D9A62FF0FC05E9A63FF0EC05F9A5B9A03
:1000C00085E08A95F1F700005B9808955C98EECF83
:1000D0005D98EFCF5E98F0CF5F98F1CFCF93DF932D
:1000E00000D00F92CDB7DEB789839A836B83629578
:1000F0006F700E9453006B8189819A810E94530026
:1001000087EC90E00197F1F700C000000F900F908E
:100110000F90DF91CF9108954295440F440F407C9A
:100120006058640F0C946E0061E00E946E008FE3D3
:100130009FE10197F1F700C00000089562E00E947E
:100140006E008FE39FE10197F1F700C00000089572
:10015000CF93DF9300D00F92CDB7DEB789839A8318
:100160006B8362956F700E9453008FE19EE401974C
:10017000F1F700C000006B8189819A810E945300D1
:100180008FE19EE40197F1F700C000000F900F90FF
:100190000F90DF91CF9108955A9A0E94A8005A9823
:1001A00008950F931F93CF93DF9300D000D0CDB766
:1001B000DEB789839A836B837C8300E010E0EB8158
:1001C000FC818081811109C00F900F900F900F90DA
:1001D000DF91CF911F910F9108958B819C810196A2
:1001E0008B839C830031110529F460EC89819A810D
:1001F0000E946E00EB81FC81629189819A810E944C
:10020000CC000F5F1F4FDBCF0F931F93CF93DF9374
:1002100000D000D0CDB7DEB789839A838A01660FFC
:10022000660F660F687360640E946E000B831C8308
:100230000B811C81085F1F4FEB81FC816191EB8377
:10024000FC8389819A810E94CC008B819C818017DC
:10025000910791F70F900F900F900F90DF91CF9132
:100260001F910F9108950F931F93CF93DF93CDB7F5
:10027000DEB7A0970FB6F894DEBF0FBECDBF8C01DE
:10028000529A539A549A559A569A579A5C982FEFC5
:1002900080E792E0215080409040E1F700C00000EC
:1002A00063E0C8010E9453008FE19EE40197F1F7DB
:1002B00000C0000063E0C8010E9453008FE891E095
:1002C0000197F1F700C0000063E0C8010E945300ED
:1002D00062E0C8010E94530068E2C8010E946E00FB
:1002E0006CE0C8010E946E00C8010E94940066E0A4
:1002F000C8010E946E0095E89A95F1F7000088E029
:10030000E4E0F1E0DE01599601900D928A95E1F763
:10031000AE01475E5F4F60E0C8010E94040188E0C3
:10032000E3E0F2E0DE01519601900D928A95E1F74B
:10033000AE014F5E5F4F61E0C8010E94040188E09A
:10034000ECE0F1E0DE01199601900D928A95E1F75B
:10035000AE01475F5F4F62E0C8010E94040188E080
:10036000E4E1F1E0DE01119601900D928A95E1F74A
:10037000AE014F5F5F4F63E0C8010E940401A09689
:100380000FB6F894DEBF0FBECDBFDF91CF911F91A6
:100390000F910895FC0110821182128213820C9435
:1003A0003301CF92DF92EF92FF920F931F93CF937F
:1003B000DF9300D000D00F92CDB7DEB76C018E0175
:1003C0000F5F1F4FC8010E943301C8010E949400B3
:1003D00084E0E82EF12CB601C8010E94D1002FEF75
:1003E0008EE994E2215080409040E1F700C0000087
:1003F000C8010E9494002FEF83EC99E021508040C7
:100400009040E1F700C00000B601C8010E94D10091
:100410002FEF8EE994E2215080409040E1F700C038
:100420000000C8010E9494002FEF83EC99E0215056
:1004300080409040E1F700C00000B601C8010E9472
:10044000D1002FEF87EA91E6215080409040E1F7FC
:1004500000C00000C8010E9494002FEF83EC99E0D7
:10046000215080409040E1F700C0000021E0E21AF6
:10047000F10809F0B0CFC8010F900F900F900F90C6
:100480000F90DF91CF911F910F91FF90EF90DF9030
:10049000CF900C949400AF92BF92CF92DF92EF92E4
:1004A000FF920F931F93CF93DF9300D000D000D023
:1004B000CDB7DEB76C015E012FEFA21AB20AC501FB
:1004C0000E943301F60101900020E9F731978F0176
:1004D0000C191D0982E0E82EF12CAE82BD828E81BE
:1004E0009D810E949400B6018E819D810E94D10061
:1004F0008FEF9DE222E2815090402040E1F700C062
:100500000000A12CB12CA016B106C4F0EA94EF288B
:1005100089F40F900F900F900F900F900F90DF9134
:10052000CF911F910F91FF90EF90DF90CF90BF90F0
:10053000AF900895EE24E394F12CD1CF8E819D816C
:100540000E94940060E88E819D810E946E00B60139
:100550006A0D7B1D8E819D810E94D1008FEF95EAEF
:100560002EE0815090402040E1F700C000008FEF66
:10057000A81AB80AC8CFCF93DF9300D000D000D01C
:10058000CDB7DEB78D839E83CE0101960E943301E5
:10059000CE0101960E9494006D817E81CE0101966C
:1005A0000E94D10024E53DEC8DE293E021503040E3
:1005B00080409040D9F700C000C000000F900F901D
:1005C0000F900F900F900F90DF91CF910895CF93E0
:1005D000C82F8A3029F460E070E08DE00E94E702C5
:1005E0008091C00085FFFCCFC093C60080E090E002
:1005F000CF9108958091C00087FFFCCF8091C60005
:1006000090E008951092C50083E38093C400E0EC6D
:10061000F0E080818D7F808386E08093C20088E156
:100620008093C10008950F931F93CF93DF930AE146
:1006300012E082E0F801838387EE92E08087918761
:10064000CCE0D2E081E08B838AEF92E08A879B87BF
:100650000E94020300932A0210932B02C0932802E7
:10066000D0932902DF91CF911F910F910895CDB7BB
:10067000DEB72A970FB6F894DEBF0FBECDBF0E943B
:1006800013038E010B5F1F4FC8010E94CA01C801EE
:100690000E943301C8010E94940080E090E00E9413
:1006A000AB04CB010E9457040E945204F12C09872D
:1006B0001A870FE010E089859A850E949400F11452
:1006C000D9F00E9452040E945204B8010E94DC0337
:1006D0000597C9F30E945204B8010E94DC030697F3
:1006E0000297C0F30E945204B8010E94DC030897ED
:1006F0000397C0F30E9452040E94520463E070E02A
:100700000E94DC038130910578F58CE191E00E9434
:100710004B020E94520480FD34C08FE591E00E949C
:100720004B020E94520480FD37C085E991E00E948F
:100730004B028AEB91E00E94BB0280E090E00E94B5
:10074000AB0469837A838B839C83CE0101960E94DC
:100750006004FC01818180FD2AC08DEC91E00E9443
:100760004B02FF24F394A7CF29F48FE291E00E947B
:10077000BB02CFCF029769F68CE491E00E94D101D1
:10078000C8CF62E070E00E94DC03019751F68AE76F
:1007900091E00E94BB02C5CF62E070E00E94DC03E2
:1007A000019739F68BEA91E00E94D101C2CF88EE21
:1007B00091E00E94BB02D5CF97FB072E16F4009460
:1007C00007D077FD09D00E94F00307FC05D03EF466
:1007D000909581959F4F0895709561957F4F0895ED
:1007E000AA1BBB1B51E107C0AA1FBB1FA617B70757
:1007F00010F0A61BB70B881F991F5A95A9F7809573
:100800009095BC01CD010895AAE0B0E0EAE0F4E0E3
:100810000C94DA0589879A87FC0160817181828155
:10082000938100977040604021F464E279ED8BE59C
:1008300097E02DE133EF41E050E00E9498052983D5
:100840003A834B835C839B01AC01A7EAB1E40E942D
:10085000B7056D837E838F839887ACEEB4EF2981D3
:100860003A814B815C810E94C5052D813E814F817B
:100870005885260F371F481F591FC901DA01B7FFD6
:1008800003C00197A109B048E985FA858083918367
:10089000A283B3839F772A96E2E00C94F6050E9428
:1008A0000404089580E091E00E9404040895809378
:1008B000000190930101109202011092030108952A
:1008C0006EE272E00E9467048EE292E00895A8E072
:1008D000B0E0EDE6F4E00C94D8058D839E836F8341
:1008E0007887E0913E02F0913F020FEF1FEF3097C3
:1008F00021F06AE372E009958C01ED81FE8180812F
:100900009181A281B38140913A0250913B02609162
:100910003C0270913D02840F951FA61FB71F101651
:1009200011063CF4012E000C0008800F911FA01D41
:10093000B01D89839A83AB83BC836F817885CE0198
:1009400001960E94BE04EF81F885028713872896DE
:10095000E4E00C94F405FC012FB7F8946091400298
:100960007091410280914202909143022FBF3097D3
:1009700021F060837183828393830895A8E0B0E0BF
:10098000E4ECF4E00C94D4058B01FC0160817181EE
:100990008281938120E831E541E050E00E947605B4
:1009A00069017A012CE330E040E050E00E949805B4
:1009B00029833A834B835C83F80160836CE370E0A6
:1009C00089819A810E94DC03F80181836283C601D8
:1009D000069667E070E00E94F00384832DEA3EE80B
:1009E00040E050E0B601C7010E94980529833A8390
:1009F0006D837E838F83988789819A8124E6289FDF
:100A00006001299FD00C11246D817E818F81988592
:100A100025EB35E040E050E00E94980529833A83B9
:100A20006D837E83E980FA80EE0CFF1CEE0CFF1CC8
:100A3000EC0CFD1C8D819E81F5E6EF16F10488F12A
:100A4000019621E030E0A90144595E4F481759074B
:100A500050F46DE671E0821B930B0E94DC03E60EFE
:100A6000F71E20E030E044E6E40EF11CF801E682D7
:100A7000F78280879187255C3F4F82179307D0F4D8
:100A80006FE170E00E94DC03A82F862F2A2FF80167
:100A90008583128613862F5F23832896E8E00C94C3
:100AA000F00541E024E6E216F10409F440E0242FC9
:100AB00030E0C9CF69E970E0821B930B0E94DC0330
:100AC000262F220F220FE22EE60E6DE370E00E9429
:100AD000DC03F62EFF0C6FE170E00E94DC03A82F10
:100AE000862F2A2F8E5F8E0D8F0DD1CFA1E21A2E69
:100AF000AA1BBB1BFD010DC0AA1FBB1FEE1FFF1FC2
:100B0000A217B307E407F50720F0A21BB30BE40B11
:100B1000F50B661F771F881F991F1A9469F7609558
:100B20007095809590959B01AC01BD01CF01089512
:100B3000052E97FB1EF400940E94AF0557FD07D0C9
:100B40000E94760507FC03D04EF40C94AF05509537
:100B50004095309521953F4F4F4F5F4F08959095A9
:100B60008095709561957F4F8F4F9F4F08950E949C
:100B70000106A59F900DB49F900DA49F800D911D1F
:100B800011240895B7FF0C94B7050E94B705821B86
:100B9000930B08952F923F924F925F926F927F92A4
:100BA0008F929F92AF92BF92CF92DF92EF92FF927D
:100BB0000F931F93CF93DF93CDB7DEB7CA1BDB0B29
:100BC0000FB6F894DEBF0FBECDBF09942A883988CE
:100BD00048885F846E847D848C849B84AA84B984D5
:100BE000C884DF80EE80FD800C811B81AA81B981E1
:100BF000CE0FD11D0FB6F894DEBF0FBECDBFED01F5
:100C00000895A29FB001B39FC001A39F700D811DE5
:100C10001124911DB29F700D811D1124911D089505
:040C2000F894FFCF76
:100C24000100000004000E010F110F00000C0A095E
:100C34000A0C000000060A120A0600004275792018
:100C44006361727320617420486172727973004128
:100C540020676F6F64207075726368617365202804
:100C6400666F72204861727279212900486F6E653F
:100C74007374204861727279732043617273004205
:100C8400757920706965732066726F6D2047726193
:100C94006E646D61204475636B00487572727920CF
:100CA4007570207768696C6520706965732072655A
:100CB4006D61696E006D79737465726965733F2047
:100CC40063616C6C20676F6F667900476F6F66793C
:100CD4002066696E647320697400496F542041640E
:100CE400766572746973656D656E747300506574AE
:100CF400652077696C6C206275696C642069742066
:100D0400666F7220796F7500496C6C6567616C2041
:100D1400636F6E737472756374696F6E3F20506590
:0C0D24007465001F110A04040A111F006E
:00000001FF
